{
  "_format": "hh-sol-artifact-1",
  "contractName": "Calend3",
  "sourceName": "contracts/Calend3.sol",
  "abi": [
    {
      "inputs": [],
      "stateMutability": "nonpayable",
      "type": "constructor"
    },
    {
      "inputs": [
        {
          "internalType": "string",
          "name": "title",
          "type": "string"
        },
        {
          "internalType": "uint256",
          "name": "startTime",
          "type": "uint256"
        },
        {
          "internalType": "uint256",
          "name": "endTime",
          "type": "uint256"
        }
      ],
      "name": "createAppointment",
      "outputs": [],
      "stateMutability": "payable",
      "type": "function"
    },
    {
      "inputs": [],
      "name": "getAppointments",
      "outputs": [
        {
          "components": [
            {
              "internalType": "string",
              "name": "title",
              "type": "string"
            },
            {
              "internalType": "address",
              "name": "attendee",
              "type": "address"
            },
            {
              "internalType": "uint256",
              "name": "startTime",
              "type": "uint256"
            },
            {
              "internalType": "uint256",
              "name": "endTime",
              "type": "uint256"
            },
            {
              "internalType": "uint256",
              "name": "amountPaid",
              "type": "uint256"
            }
          ],
          "internalType": "struct Calend3.Appointment[]",
          "name": "",
          "type": "tuple[]"
        }
      ],
      "stateMutability": "view",
      "type": "function"
    },
    {
      "inputs": [],
      "name": "getRate",
      "outputs": [
        {
          "internalType": "uint256",
          "name": "",
          "type": "uint256"
        }
      ],
      "stateMutability": "view",
      "type": "function"
    },
    {
      "inputs": [],
      "name": "owner",
      "outputs": [
        {
          "internalType": "address payable",
          "name": "",
          "type": "address"
        }
      ],
      "stateMutability": "view",
      "type": "function"
    },
    {
      "inputs": [
        {
          "internalType": "uint256",
          "name": "_rate",
          "type": "uint256"
        }
      ],
      "name": "setRate",
      "outputs": [],
      "stateMutability": "nonpayable",
      "type": "function"
    }
  ],
  "bytecode": "0x608060405234801561001057600080fd5b5033600160006101000a81548173ffffffffffffffffffffffffffffffffffffffff021916908373ffffffffffffffffffffffffffffffffffffffff16021790555061100f806100616000396000f3fe60806040526004361061004a5760003560e01c806334fcf4371461004f57806359c35bdf14610078578063679aefce146100945780638da5cb5b146100bf57806396b80d08146100ea575b600080fd5b34801561005b57600080fd5b50610076600480360381019061007191906105ea565b610115565b005b610092600480360381019061008d919061075d565b6101af565b005b3480156100a057600080fd5b506100a96103c7565b6040516100b691906107db565b60405180910390f35b3480156100cb57600080fd5b506100d46103d0565b6040516100e19190610837565b60405180910390f35b3480156100f657600080fd5b506100ff6103f6565b60405161010c9190610a39565b60405180910390f35b600160009054906101000a900473ffffffffffffffffffffffffffffffffffffffff1673ffffffffffffffffffffffffffffffffffffffff163373ffffffffffffffffffffffffffffffffffffffff16146101a5576040517f08c379a000000000000000000000000000000000000000000000000000000000815260040161019c90610ab8565b60405180910390fd5b8060008190555050565b6101b761055b565b8381600001819052508281604001818152505081816060018181525050600054603c84846101e59190610b07565b6101ef9190610b6a565b6101f99190610b9b565b8160800181815250508060800151341015610249576040517f08c379a000000000000000000000000000000000000000000000000000000000815260040161024090610c29565b60405180910390fd5b6000600160009054906101000a900473ffffffffffffffffffffffffffffffffffffffff1673ffffffffffffffffffffffffffffffffffffffff163460405161029190610c7a565b60006040518083038185875af1925050503d80600081146102ce576040519150601f19603f3d011682016040523d82523d6000602084013e6102d3565b606091505b5050905080610317576040517f08c379a000000000000000000000000000000000000000000000000000000000815260040161030e90610cdb565b60405180910390fd5b600282908060018154018082558091505060019003906000526020600020906005020160009091909190915060008201518160000190816103589190610f07565b5060208201518160010160006101000a81548173ffffffffffffffffffffffffffffffffffffffff021916908373ffffffffffffffffffffffffffffffffffffffff16021790555060408201518160020155606082015181600301556080820151816004015550505050505050565b60008054905090565b600160009054906101000a900473ffffffffffffffffffffffffffffffffffffffff1681565b60606002805480602002602001604051908101604052809291908181526020016000905b8282101561055257838290600052602060002090600502016040518060a001604052908160008201805461044d90610d2a565b80601f016020809104026020016040519081016040528092919081815260200182805461047990610d2a565b80156104c65780601f1061049b576101008083540402835291602001916104c6565b820191906000526020600020905b8154815290600101906020018083116104a957829003601f168201915b505050505081526020016001820160009054906101000a900473ffffffffffffffffffffffffffffffffffffffff1673ffffffffffffffffffffffffffffffffffffffff1673ffffffffffffffffffffffffffffffffffffffff16815260200160028201548152602001600382015481526020016004820154815250508152602001906001019061041a565b50505050905090565b6040518060a0016040528060608152602001600073ffffffffffffffffffffffffffffffffffffffff1681526020016000815260200160008152602001600081525090565b6000604051905090565b600080fd5b600080fd5b6000819050919050565b6105c7816105b4565b81146105d257600080fd5b50565b6000813590506105e4816105be565b92915050565b600060208284031215610600576105ff6105aa565b5b600061060e848285016105d5565b91505092915050565b600080fd5b600080fd5b6000601f19601f8301169050919050565b7f4e487b7100000000000000000000000000000000000000000000000000000000600052604160045260246000fd5b61066a82610621565b810181811067ffffffffffffffff8211171561068957610688610632565b5b80604052505050565b600061069c6105a0565b90506106a88282610661565b919050565b600067ffffffffffffffff8211156106c8576106c7610632565b5b6106d182610621565b9050602081019050919050565b82818337600083830152505050565b60006107006106fb846106ad565b610692565b90508281526020810184848401111561071c5761071b61061c565b5b6107278482856106de565b509392505050565b600082601f83011261074457610743610617565b5b81356107548482602086016106ed565b91505092915050565b600080600060608486031215610776576107756105aa565b5b600084013567ffffffffffffffff811115610794576107936105af565b5b6107a08682870161072f565b93505060206107b1868287016105d5565b92505060406107c2868287016105d5565b9150509250925092565b6107d5816105b4565b82525050565b60006020820190506107f060008301846107cc565b92915050565b600073ffffffffffffffffffffffffffffffffffffffff82169050919050565b6000610821826107f6565b9050919050565b61083181610816565b82525050565b600060208201905061084c6000830184610828565b92915050565b600081519050919050565b600082825260208201905092915050565b6000819050602082019050919050565b600081519050919050565b600082825260208201905092915050565b60005b838110156108b857808201518184015260208101905061089d565b60008484015250505050565b60006108cf8261087e565b6108d98185610889565b93506108e981856020860161089a565b6108f281610621565b840191505092915050565b6000610908826107f6565b9050919050565b610918816108fd565b82525050565b610927816105b4565b82525050565b600060a083016000830151848203600086015261094a82826108c4565b915050602083015161095f602086018261090f565b506040830151610972604086018261091e565b506060830151610985606086018261091e565b506080830151610998608086018261091e565b508091505092915050565b60006109af838361092d565b905092915050565b6000602082019050919050565b60006109cf82610852565b6109d9818561085d565b9350836020820285016109eb8561086e565b8060005b85811015610a275784840389528151610a0885826109a3565b9450610a13836109b7565b925060208a019950506001810190506109ef565b50829750879550505050505092915050565b60006020820190508181036000830152610a5381846109c4565b905092915050565b600082825260208201905092915050565b7f4f6e6c7920746865206f776e65722063616e2073657420746865207261746500600082015250565b6000610aa2601f83610a5b565b9150610aad82610a6c565b602082019050919050565b60006020820190508181036000830152610ad181610a95565b9050919050565b7f4e487b7100000000000000000000000000000000000000000000000000000000600052601160045260246000fd5b6000610b12826105b4565b9150610b1d836105b4565b9250828203905081811115610b3557610b34610ad8565b5b92915050565b7f4e487b7100000000000000000000000000000000000000000000000000000000600052601260045260246000fd5b6000610b75826105b4565b9150610b80836105b4565b925082610b9057610b8f610b3b565b5b828204905092915050565b6000610ba6826105b4565b9150610bb1836105b4565b9250828202610bbf816105b4565b91508282048414831517610bd657610bd5610ad8565b5b5092915050565b7f57652072657175697265206d6f72652065746865720000000000000000000000600082015250565b6000610c13601583610a5b565b9150610c1e82610bdd565b602082019050919050565b60006020820190508181036000830152610c4281610c06565b9050919050565b600081905092915050565b50565b6000610c64600083610c49565b9150610c6f82610c54565b600082019050919050565b6000610c8582610c57565b9150819050919050565b7f4661696c656420746f2073656e64204574686572000000000000000000000000600082015250565b6000610cc5601483610a5b565b9150610cd082610c8f565b602082019050919050565b60006020820190508181036000830152610cf481610cb8565b9050919050565b7f4e487b7100000000000000000000000000000000000000000000000000000000600052602260045260246000fd5b60006002820490506001821680610d4257607f821691505b602082108103610d5557610d54610cfb565b5b50919050565b60008190508160005260206000209050919050565b60006020601f8301049050919050565b600082821b905092915050565b600060088302610dbd7fffffffffffffffffffffffffffffffffffffffffffffffffffffffffffffffff82610d80565b610dc78683610d80565b95508019841693508086168417925050509392505050565b6000819050919050565b6000610e04610dff610dfa846105b4565b610ddf565b6105b4565b9050919050565b6000819050919050565b610e1e83610de9565b610e32610e2a82610e0b565b848454610d8d565b825550505050565b600090565b610e47610e3a565b610e52818484610e15565b505050565b5b81811015610e7657610e6b600082610e3f565b600181019050610e58565b5050565b601f821115610ebb57610e8c81610d5b565b610e9584610d70565b81016020851015610ea4578190505b610eb8610eb085610d70565b830182610e57565b50505b505050565b600082821c905092915050565b6000610ede60001984600802610ec0565b1980831691505092915050565b6000610ef78383610ecd565b9150826002028217905092915050565b610f108261087e565b67ffffffffffffffff811115610f2957610f28610632565b5b610f338254610d2a565b610f3e828285610e7a565b600060209050601f831160018114610f715760008415610f5f578287015190505b610f698582610eeb565b865550610fd1565b601f198416610f7f86610d5b565b60005b82811015610fa757848901518255600182019150602085019450602081019050610f82565b86831015610fc45784890151610fc0601f891682610ecd565b8355505b6001600288020188555050505b50505050505056fea2646970667358221220a723c10281320a663948490f25b19e1b8a288589dbc316359d3860a2bdacccc464736f6c63430008110033",
  "linkReferences": {},
  "deployedLinkReferences": {}
}